:020000041000EA
:1010000020050020191000100000000099100010A9
:1010100000040100000000801149124A124B00F048
:1010200018F8124880471249124A134B00F011F881
:101030001249134A134B00F00CF81349134A0020CD
:10104000521A02DD043A8850FCDC114880471148EE
:1010500080479B1A03DD043BC858D050FBDC704727
:101060000C3000100C0000201C0100209D200010FE
:101070001C31001020050020AC050020A831001014
:10108000AC050020AC050020AC0500204C0700207A
:10109000312D0010B9260010FEE700000022024B9F
:1010A0001A7001207047C046AC0500200122034B96
:1010B0001A70034B187001207047C046AC05002021
:1010C000AD050020064B1B78002B07D0054B1B7885
:1010D00003700022024B1A70012000E000207047CC
:1010E000AC050020AD050020014B18607047C046DC
:1010F000B005002008B5012801D101291CD0012923
:1011000009D10E4B08225A60802252035A600C4BC0
:101110001B68984710E0012806D1084B8022120373
:101120005A6010225A6007E0014305D1034B802228
:1011300012035A6010225A6008BDC04600000440E5
:101140003807002030B589B0294804689020C005D0
:1011500084424AD105A80271002242710132827193
:10116000012B0DD0002B02D0022B04D00DE0002269
:1011700005AB1A810CE08022920005AB1A8107E0D2
:10118000C022920005AB1A8102E0002205AB1A8151
:1011900005919024E405201C05A901F0D9F801AAC5
:1011A00000231370134D281C012100F07DFFE3691B
:1011B00050229343E361E369493A9343023A13436C
:1011C000E36103AAB0231370281C002100F06CFF18
:1011D000236C0F2293430D3A13432364201CF12107
:1011E000090201F013F9012000E0002009B030BD30
:1011F000B00500200002044008B5011C054B18682A
:10120000002804D0C9B201F0DDF8012000E0002080
:1012100008BDC046B005002010B5084B1B68002B68
:101220000AD0041C9020C005C0231B02C36401F037
:10123000DDF82070012000E0002010BDB005002086
:1012400008B5024B1B68984708BDC0464007002000
:1012500008B5024B1B68984708BDC04638070020F8
:1012600008B5024B1B68984708BDC0463C070020E4
:1012700001207047064B03221A61064A8021890328
:10128000C0204000115011600122DA607047C04652
:101290000001044800E100E0802189038023054A21
:1012A000D150BFF34F8FBFF36F8F0322024B1A61F0
:1012B0007047C04600E100E00001044830B5FF225D
:1012C000FF2508E003785340064AD25C6A4006498D
:1012D000CD5C211C01304B1E9CB20029F2D12802AA
:1012E000104330BD902E0010902D001010B5141C2E
:1012F00072B6081C111C0822FFF724FF012810D128
:101300009623DB019C4204D86100084801F07EFC72
:1013100000E0232080B2FFF7ABFF012803D10020BB
:1013200002E0032000E0032062B610BDA07F17009A
:1013300008B572B60022054B1A7001200021FFF794
:10134000D9FEFFF797FF62B608BDC046BD05002075
:1013500008B572B600200021FFF7CCFEFFF79CFF16
:1013600062B608BD70B572B60F4B1B889BB2032BDB
:1013700014D9151C0C1C061C0B4B198889B20B4880
:10138000FFF79CFF00280BD1084B1A783270064AF1
:101390001288033A2A800133236002E0052000E02E
:1013A000052062B670BDC046BA0500203806002090
:1013B00010B572B6174B1B78012B28D14B1E16495E
:1013C0000B60164C01212180187021888A1892B276
:1013D0002280218889B2181CFFF770FF23889BB2F6
:1013E0005A1C92B22280C2B20D49CA5423889BB2C1
:1013F0005A1C92B22280000AC0B2C854094B012282
:101400001A7000200121FFF775FE002000E0052082
:1014100062B610BDBD050020B4050020B80500204F
:1014200038060020BC05002000B583B06B46D81DEF
:10143000FFF7F2FE1D4B1B78DBB2012B0CD0002B0B
:1014400004D0022B1AD0032B03D02CE0FFF712FF9D
:1014500029E0FFF70FFF26E0154A002313801388C9
:101460009BB2591C89B211806A46D179114AD15474
:1014700002220E4B1A70FFF7FDFE14E00C4B1B8886
:101480009BB2FF2B0AD80A490B889BB25A1C92B216
:101490000A806A46D179074AD15402E00322034BFD
:1014A0001A70FFF7E7FE002003B000BDBD05002065
:1014B000BA0500203806002010B5194B1B78DBB2A6
:1014C000002B02D0012B06D026E001200021FFF7DF
:1014D00011FE002421E0134B1B889BB2002B0FD080
:1014E000114C2368187840B2FFF786FE2368013359
:1014F00023600C4A1388013B9BB2138000240CE04C
:101500000320FFF7D3FD041C01200021FFF7F2FDAB
:101510000022034B1A7000E00024201C10BDC046BE
:10152000BC050020B8050020B405002010B50D4B07
:101530001B78DBB2002B02D0022B05D009E0002083
:10154000FFF7B4FD041C05E00120FFF7AFFD041C0C
:1015500000E00024FFF7A0FE0122024B1A70201CBD
:1015600010BDC046BD05002070B50B88052B32D1DB
:1015700043781B028278134301339CB2C278120273
:1015800003791A43531E9BB2154DAB4225D8002355
:101590000B80013303700B8801330B80530703D09A
:1015A000D5080135EDB201E0D508EDB20E1C031CE3
:1015B00002305D700B8801330B80211C002301F089
:1015C000A7F9002802D000F0F5F907E033885D198B
:1015D0003580002002E0032000E0032070BDC046FB
:1015E000CE07000000B583B00B88052B22D14178CF
:1015F000090283781943013189B20379002B1BD189
:10160000C278531EDBB2FD2B18D9002001AB5870F5
:10161000FF2A02D1FE3A1A7002E0002201AB1A70D2
:1016200001A80122012301F073F9002808D000F07D
:10163000C1F906E0032004E0032002E0032000E0FB
:10164000002003B000BDC046F8B50B88052B28D993
:1016500043781B028278134301339BB2C278120293
:10166000047922434779540703D0D4080134E4B203
:1016700001E0D408E4B2551EADB20D4EB54212D809
:10168000BC4212D10C1C0630191C012301F040F998
:10169000002802D000F08EF908E005232380002006
:1016A00004E0032002E0032000E00320F8BDC04670
:1016B000AF07000070B50B88052B31D143781B02B2
:1016C0008278134301339CB2C278120203791A4321
:1016D000531E9BB2144DAB4224D800230B8002331F
:1016E00003700B8801330B80530703D0D5080135F5
:1016F000EDB201E0D508EDB20E1C031C02305D70A6
:101700000B8801330B80211C01F056F9002802D010
:1017100000F050F907E033885D193580002002E0C1
:10172000032000E0032070BDCE07000008B50B8841
:10173000052B0FD14178090283781943013189B211
:1017400003300122012301F0A7F8002804D000F0A3
:1017500031F902E0032000E0002008BD38B50B8815
:10176000052B21D943781B028278134301339BB2A6
:10177000C2781202047922434579541EA4B2772C10
:1017800014D85400E4B2AC4212D10C1C0630191C1F
:10179000012301F081F8002802D000F00BF908E0E5
:1017A00005232380002004E0032002E0032000E062
:1017B000032038BD70B50B88052B2AD143781B0256
:1017C0008278134301339AB20679B5B26B1E9BB28D
:1017D0007C2B20D80C1C031C0021218003310170BC
:1017E000218801312180023076005E702388013328
:1017F0002380111C2A1C002301F04EF8002802D07F
:1018000000F0D8F808E06D0023885D1925800020DD
:1018100002E0032000E0032070BDC046F8B50B884D
:10182000092B44D943781B028278134301339CB2BD
:10183000C5782D0203791D4343791B028279134336
:1018400001339BB2C2791202067A3243477A6E1E86
:10185000B6B27C2E2DD8002A2DD0792A2DD856004C
:10186000BE422CD10E1C071C0A30191C012301F0AA
:1018700013F8002816D10023338017223A703288DB
:1018800001323280B81C6A007A70328801323280AC
:10189000211C2A1C01F000F8002803D16D003388B8
:1018A0005D19358000280CD000F084F80AE0002093
:1018B00008E0032006E0032004E0032002E0032008
:1018C00000E00020F8BDC04670B50B88052B2BD179
:1018D00043781B028278134301339CB2C5782D02F2
:1018E00003791D436B1E9BB27B2B1FD80E1C031C60
:1018F00000220A80043202700A8801320A80023013
:101900006A005A700B8801330B80211C2A1C00F0DE
:10191000AFFF002802D000F04DF808E06D003388DA
:101920005D193580002002E0032000E0032070BD37
:1019300038B50D1C0130054B1C880549221C01F0EF
:101940001DFA01342C80002038BDC046BE050020A1
:10195000C0050020F0B5CD08EF00CE1BB6B2B340F5
:101960001E1C01249440221C013A92B2C91B8A40D9
:10197000111C441922780135401903781B021343C6
:101980008B4333439BB223701B0A0370F0BDC046E8
:1019900010B5CC08E300C91A89B2012393401A1C80
:1019A000013A035D041960780002184308411040B1
:1019B000C0B210BD01280AD0002802D0072802D0EA
:1019C00003E0002004E0062002E0042000E0022002
:1019D0007047C046021C031C303BD8B2092806D908
:1019E000113B052B02D8373AD0B200E0FF207047F8
:1019F000092802D83030C0B207E0031C0A3B052B8F
:101A000002D83730C0B200E030207047002304E035
:101A10000178CB18DBB2111C01304A1E92B20029AA
:101A2000F6D15842C0B2704710B572B60A240A48BF
:101A30000470081C111C0722FFF784FB012806D143
:101A40000648FFF715FC012803D1002002E003201F
:101A500000E0032062B610BDE4050020204E000027
:101A600008B572B601200021FFF744FB0022034BAA
:101A70001A7062B60020FFF719FB08BDEB050020C5
:101A800008B572B600200021FFF734FBFFF704FC15
:101A900062B608BD70B572B60F4B1B889BB2022BA5
:101AA00014D9151C0C1C061C0B4B198889B20B4849
:101AB000FFF7ACFF00280BD1084B1A783270064AAA
:101AC0001288023A2A800133236002E0052000E0F8
:101AD000052062B670BDC046E8050020380600202B
:101AE00010B572B6134B1B78002B20D14B1E124938
:101AF0000B60124C01212180187021888A1892B243
:101B00002280218889B2181CFFF780FF23889BB2AE
:101B10005A1C92B222800A4A9B181870094B012263
:101B20001A7000200121FFF7E5FA002000E00520EF
:101B300062B610BDEB050020E0050020E6050020A0
:101B400038060020EA05002000B583B06B46D81D9A
:101B5000FFF762FB454B1B78DBB2012B04D0002B57
:101B60006CD0022B47D07AE0FFF784FB6B46D87924
:101B70003A2806D100233E4A13703E4A13800020C3
:101B800072E00D2804D10222384B1A7000206BE05D
:101B9000FFF720FF364B1B78DBB2002B02D0012B66
:101BA00018D05EE0334B1B889BB2FF2B0BD8314B18
:101BB0001B88314AD3180001C0B2187001222C4B87
:101BC0001A70002050E00022284B1A70FFF764FBC7
:101BD000002049E0274A13882749CB181978084381
:101BE000C0B21870138801339BB213800022204BBF
:101BF0001A70002038E06B46DA79204B1B78DBB294
:101C00009A4208D1FFF748FB0022184B1A700120B6
:101C1000FFF74CFA28E03A2A0BD10023144A13703C
:101C2000144A13800122114B1A70FFF723FB002086
:101C30001AE000220D4B1A70002015E06B460733A6
:101C40001B783A2B0FD1FFF715FB0022094B1A80A6
:101C5000074B1A700122054B1A70002004E0002087
:101C600002E0002000E0002003B000BDEB050020F2
:101C7000E5050020E805002038060020E4050020E6
:101C800070B5384B1B78DBB2042B65D89B00364A05
:101C9000D3589F463A20FFF7AFFA0222314B1A7011
:101CA0000022324B1A70002459E0314B1B889BB242
:101CB000002B2CD02D4B1B78DBB2002B02D0012B3C
:101CC0000ED04BE02B4B1B6818780009FFF790FEF5
:101CD00040B2FFF791FA0122244B1A7000243EE033
:101CE000244C236818780F231840FFF781FE40B278
:101CF000FFF782FA23680133236000221B4B1A701E
:101D00001B4A1388013B9BB21380002427E00D205F
:101D1000FFF772FA0322134B1A7000241FE0164BD0
:101D2000187840B2FFF768FA04220E4B1A700024AC
:101D300015E00C4D00262E700320FFF7B7F9041CA8
:101D400001200021FFF7D6F92E7008E001200021C4
:101D5000FFF7D0F9002402E0002400E00024201C5A
:101D600070BDC046EA050020902F0010E505002058
:101D7000E6050020E0050020E405002008B5064B3C
:101D80001B78013B012B02D80022034B1A70FFF78E
:101D900083FA002008BDC046EB05002070B5051C85
:101DA00004AC26784C1EE4B2F62C53D82C4C21708F
:101DB000002802D0012820D03FE02A4C2A480460A5
:101DC0002A4C2B4804602B4C2B4804602B4C2C488D
:101DD000046000242B4804602B4C2C4804602C4CDD
:101DE0002C4804602C4C2D480460081C111C1A1C43
:101DF000331CFFF77BFA041C20E0294C1A480460CE
:101E0000284C1B480460284C1B480460274C1C4885
:101E1000046000241B480460254C1C480460254CC9
:101E20001C480460244C1D480460081C111C1A1C2A
:101E3000331CFFF7F9FD041C00E00224002C0CD138
:101E4000FFF72CF9002807D01C4B1D7001221C4BFA
:101E50001A7002E0022400E00324201C70BDC0467A
:101E60000B06002031130010F40500205113001060
:101E7000EC050020B1130010FC05002065130010D4
:101E8000F00500200C060020291400104007002057
:101E9000B9140010380700202D1500103C07002051
:101EA000611A0010811A0010E11A0010951A001032
:101EB000491B0010811C00107D1D00100106002030
:101EC000A005002008B5074B1B78012B07D1064B56
:101ED0001B6898470022034B1A70002000E0062080
:101EE00008BDC046A0050020F405002030B583B031
:101EF000384B1B78002B60D16B46D81DFFF7E2F8FA
:101F000001285CD16B4607331B78012B02D0022BD2
:101F100015D056E0304B1B6830483149314A98475C
:101F2000002850D12D4B1B782F4A1278934201D0B4
:101F3000002B4AD10220FFF7B9F8002048E0284BD7
:101F400018680478294B1C700122294B1A70002351
:101F50000FE0DA002749525C002A0CD0944207D1E6
:101F6000DB00CB185B681F499847214B187002E0D3
:101F700001330F2BEDD9194B1B78002B27D01C4BAD
:101F80001B78002B0ED0174A1548046801211180D8
:101F900016490D78802129432170006811884C1C56
:101FA00014804354144B1B680F4A10780C4A116874
:101FB0000C4A1288984700200AE0062008E000201A
:101FC00006E0002004E0002002E0002000E0002005
:101FD00003B030BDA0050020F0050020F80500206A
:101FE00004060020080600200B0600200006002042
:101FF0000A06002020050020FC050020064B198958
:10200000802252010A431A814821585A8022120123
:1020100002435A527047C0460000054008B50D4AB9
:1020200013681B041B0E0C490B601268FF21114042
:102030000A4A1160002B08D01B02C918084800F09A
:10204000E5FD4000074B186002E0074A054B1A60A7
:1020500008BDC04600030140100600201406002001
:10206000000024F4FC3F00200048E80108B5C0222D
:10207000074B5A62074A084B1A60074B1B685B0004
:10208000FBD4C322024B5A62FFF7C8FF08BDC0460B
:10209000000001400001F13F0003014008B5FFF7D7
:1020A000ADFFFFF7E3FF08BDF0B54F464646C0B4AD
:1020B0008B08994604339B001E5803250D40ED0004
:1020C000F827AF40BE431E50436F4F000326BE406B
:1020D000B3434367CB0810339B001C5807260E40C0
:1020E000B6000427B740BC431C501F58BC46577865
:1020F000B7403E1C67463E431E500C4B984204D1ED
:10210000036E01268E40B343036653688B404360E1
:102110004B4604339B0019581278AA40151C0D43F6
:102120001D500CBC90469946F0BDC04600020440CC
:1021300010B50DE08008084C2268084B13400202DD
:102140001343074A13432360034B1B685B00FBD414
:102150008B008342EED310BD00030140FF000FC08F
:102160000000F03F10B510E0002800D101308000E1
:10217000084C2268084B134002021343074A1343DA
:102180002360044B1B685B00FBD483008B42EBD3C2
:1021900010BDC04600030140FF000FC00000F03F2B
:1021A000C322014B5A62704700000140C022034B1A
:1021B0005A62024B5B6A5B07FBD470470000014028
:1021C00010B5041CFFF7F2FF054B1A6914431C619C
:1021D000034B1B685B00FBD4FFF7E2FF10BDC0465A
:1021E0000003014038B5041C0D1CFFF7DFFF154B41
:1021F00018680004000E1968134A0A401543134A70
:1022000015431D600F4B1B685B00FBD4A04203D835
:10221000211CFFF7A7FF02E0211CFFF789FF094AF5
:1022200011680B4B0B4024021C43084B1C431460E9
:10223000044B1B685B00FBD4FFF7B2FFFFF7EEFE19
:1022400038BDC0460003014000FF0FC00000F03F52
:10225000FF000FC010B5041CFFF7A8FF074A116864
:10226000074B0B40A1680B4361680B431360FFF7FA
:1022700097FF60782178FFF7B5FF10BD000301409C
:10228000FFFFF0FF014B18687047C046FC3F00207D
:1022900008B5034B984202D10420FFF791FF08BD17
:1022A0000000044838B5041C0D1CFFF7F1FFE3687B
:1022B000802252001343E3602168034B0B40A903C3
:1022C0001943216038BDC046FF3FFFFF036830223D
:1022D00093430901194301607047C0460B6843618D
:1022E0004B799B06DB0F1B0543600B791B071B0F0C
:1022F00043624B791B071B0F03624B79DB06DB0F35
:1023000083610B791B09C3627047C04610B5A823CF
:10231000C35809290ED889000C4C61588F460324F4
:1023200000210DE0C024A400082109E0C0242401FC
:102330000A2105E0C024A4010C2101E00C240221A3
:10234000A3438A401A43A823C25010BDA42F0010F3
:1023500070B5051C0E1C00F0C1F8F479002C00D1FA
:102360001034281C3168221C00F05CF8B379013B62
:102370005B006408013424021C43114B1C43EC63D2
:102380003379013B1B068122520013436B6373793F
:10239000002B05D06A6B013B1B0413436B6305E004
:1023A000696B3279531E1B040B436B63A023DB0064
:1023B000AB6301235B42EB6433892B6470BDC04681
:1023C0000100030084235B00C258E023DB041A42AF
:1023D00008D1836B1B06FCD480239B01C36480233C
:1023E000C15002E0C0235B00C150704786235B00F0
:1023F000C258E023DB041A4202D1406D80B203E0F0
:102400008E235B00C05880B27047C046026CFE232A
:102410005B020B4013430364C36BF8221140194362
:10242000C1637047F0B55F464E46C0B483B06329C0
:102430003DD9002A3DD0151C0C1C8346FFF722FF16
:10244000642100F0E3FB8146201C642100F0DEFBE8
:10245000071C1B4E012301930093341C11E04846D6
:102460006043291C794300F0D1FB830A8005800D6D
:10247000134A934204D8B04202D2061C019300943E
:10248000013C002CEBD180231B02009F1F435B46C5
:102490001F615A690B4B1340013DAD021D43019E64
:1024A000013E360435435B465D61002002E00120B9
:1024B00000E0012003B00CBC91469B46F0BDC04635
:1024C000FF030000EF8000FC08B5034B984202D1E7
:1024D0000820FFF775FE08BD0800004810B5041C71
:1024E0009023DB05984202D0074B984202D107485F
:1024F000FFF7EAFF0323E360E368DB07FCD5236C07
:102500000F229343236410BD0002004808000048D6
:102510007047C04608B5074B1B68002B03D0054A1F
:102520001368013B1360044B1B78002B01D100F0B2
:10253000B5FA08BD1C060020A1050020F0B587B043
:1025400004AC414B221C03CB03C21E1C3F48042198
:10255000221CFFF7A9FD3D480521221CFFF7A4FD21
:102560003A480621221CFFF79FFD38480721221C0C
:10257000FFF79AFD35480821221CFFF795FD3348E7
:102580000921221CFFF790FD30480A21221CFFF789
:102590008BFD2E480B21221CFFF786FD02AC231C6D
:1025A00006CE06C3371C2A4D281C0D21221CFFF71E
:1025B0007BFD281C0121221CFFF776FD281C02212F
:1025C000221CFFF771FD281C0421221CFFF76CFD63
:1025D000281C0321221CFFF767FD6B4606CF06C3AC
:1025E0001C4F381C00216A46FFF75EFD381C012194
:1025F0006A46FFF759FD381C02216A46FFF754FD71
:10260000381C03216A46FFF74FFD381C04216A4637
:10261000FFF74AFD381C05216A46FFF745FD0B48C8
:102620000221221CFFF740FD80239B016B600223E7
:102630006B6002336B6080231B036B6010236B6045
:1026400000F020FA07B0F0BDCC2F001000020440CB
:1026500000000440000104405522131C03405B00AD
:10266000400810401843223A131C03409B00800886
:1026700010401843030100091843C0B27047C04618
:1026800008B5044B586A0005000EFFF7E5FFC0438C
:10269000C0B208BD0002044001E0064B1860054BC3
:1026A0001B688342F9D100E0C046024B1B68002B37
:1026B000FAD170471C06002030B583B04848FFF7B8
:1026C000C9FD484C201C0021FFF700FE201C002102
:1026D000FFF7E8FDE26801231343E360E36880222B
:1026E00052001343E360404D281C4049FFF7F6FDBC
:1026F000A422A95804230B43AB50281C022100221A
:10270000FFF704FE3A4AC52189005058394B03406F
:10271000C02000020343535080239B0313607F2398
:10272000EB636B637A3B2361FFF708FF9020C005E2
:10273000FEF7DAFC304B1868FA21890000F066FADF
:1027400001382E4B98420DD82D4A50602D490B6A06
:102750001B021B0AC020000603430B620023936088
:1027600007331360FA20FFF797FFFFF789FF031C79
:102770003F221040F9D01A060FD55B0603D500F0B2
:1027800039FAC046FDE700221F4B1A70FFF778FFA9
:102790003F23184000F026FAF8E700231A4A137086
:1027A0001A4A10701178C9B2009300200022E12368
:1027B0005B02FFF7F3FAFFF785FB0D4B80229200D7
:1027C000C02149005A501A60114C002C01D0013C24
:1027D00003E0104A104B5A600D4C00F021F9F4E769
:1027E000E42F00100000044800010448A405002064
:1027F00000E100E0FF00FFFFFC3F0020FFFFFF00C3
:1028000010E000E000ED00E0A10500201806002027
:10281000FFFF0000100010000000044010B59023DE
:10282000DB059C6CC0231B021C4209D0FEF708FD8F
:102830009023DB0580221202DA648022D201DA645E
:10284000A30404D5802292019023DB05DA64E3041B
:1028500006D5802252019023DB05DA64FEF7F8FCEE
:10286000E30504D5802252009023DB05DA6410BD15
:1028700000290FD0891889B2052907D901200AE05B
:102880000023037043700230013A92B2002AF7D15C
:10289000002000E00120704770B58C18A4B2042C11
:1028A0002FD8002B02D0012B27D02CE000290ED0EE
:1028B000013989B20BE0154C4D002B5B1B0A0370EC
:1028C0002B5B43700230013189B2013A92B2002A87
:1028D000F1D1002018E0002901D0013989B2057832
:1028E0002D020A4B4C00E552E65A45783543E55235
:1028F0000230013189B2013A92B2002AEBD10020B4
:1029000002E0012000E0012070BDC046300600203A
:1029100070B5061C95B22548814241D98A1892B2F9
:10292000093082423ED8224A944661448CB2002B40
:1029300017D0012B2FD037E02BB2082B06DD1D4816
:10294000211C0822FFF724F8307005E0EAB219488C
:10295000211CFFF71DF830700136083DADB2083478
:10296000A4B22BB2002BE7DC00201EE02BB2082B18
:1029700006DD33780F48211C0822FEF7EBFF05E047
:10298000EAB233780B48211CFEF7E4FF0136083D1C
:10299000ADB20834A4B22BB2002BE7DC002004E077
:1029A000012002E0012000E0012070BDE7030000EB
:1029B00018FCFFFF2406002070B5061C94B2154BCE
:1029C000994223D98A1892B209339A4220D8124BDD
:1029D0009C4661448DB214E023B2082B06DD0F48FB
:1029E000291C0822FEF7D4FF307005E0E2B20B4844
:1029F000291CFEF7CDFF30700136083CA4B2083523
:102A0000ADB223B2002BE7DC002002E0012000E0A1
:102A1000012070BDCF07000030F8FFFF2C0600201A
:102A200008B5FFF763FA08BD012809D0002802D0D5
:102A300002280AD00DE080229205064B5A6008E079
:102A400080229202034B5A6003E08022D202014BA3
:102A50005A60704700000440012809D0002802D0C5
:102A6000022809D00BE080229201054B5A6006E053
:102A70000222034B5A6002E00422014B5A60704765
:102A80000000044008B50220FFF7E6FF0120FFF731
:102A9000E3FF0020FFF7E0FF08BDC04608B54C4B40
:102AA0001A78062A00D98FE093004A4AD3589F46E5
:102AB0000122474B1A700022474B1A6087E0002022
:102AC000FFF7B2FF0120FFF7AFFF434B1B68002B5E
:102AD00003D0013B404A136079E002223C4B1A705C
:102AE00075E03E4B5A6A3F210A403D4BDA80DA8856
:102AF000013A0A405A805A881B885340194203D031
:102B00000322334B1A7002E00022314B1A7000206E
:102B1000FFF7A2FF0120FFF79FFF58E00220FFF719
:102B200083FF0120FFF780FF0020FFF77DFF642275
:102B3000294B1A60603A264B1A7048E0264B1B68F6
:102B4000002B0CD10120FFF787FF0020FFF784FF47
:102B50001E22214B1A60193A1D4B1A7037E0013BB7
:102B60001D4A136004221A4B1A7030E01A4B1B687E
:102B7000002B09D10220FFF76FFF7D22164B1A6050
:102B8000773A134B1A7022E0013B134A1360052277
:102B90000F4B1A701BE0104B1B68002B10D0DB078B
:102BA00003D40020FFF740FF02E00020FFF754FFAE
:102BB000094A1368013B13600622054B1A7006E0B0
:102BC0000022034B1A7002E00022014B1A7008BD6C
:102BD00020060020F02F00102806002000010440ED
:102BE000300600203F231840014B18807047C04634
:102BF0003006002008B50020FFF716FF0120FFF780
:102C000013FF0220FFF710FF08BDC0460022430853
:102C10008B4274D303098B425FD3030A8B4244D3A4
:102C2000030B8B4228D3030C8B420DD3FF220902E6
:102C300012BA030C8B4202D31212090265D0030BA5
:102C40008B4219D300E0090AC30B8B4201D3CB039B
:102C5000C01A5241830B8B4201D38B03C01A5241DD
:102C6000430B8B4201D34B03C01A5241030B8B42DF
:102C700001D30B03C01A5241C30A8B4201D3CB02CA
:102C8000C01A5241830A8B4201D38B02C01A5241AF
:102C9000430A8B4201D34B02C01A5241030A8B42B2
:102CA00001D30B02C01A5241CDD2C3098B4201D3CA
:102CB000CB01C01A524183098B4201D38B01C01A48
:102CC000524143098B4201D34B01C01A52410309BF
:102CD0008B4201D30B01C01A5241C3088B4201D36E
:102CE000CB00C01A524183088B4201D38B00C01A1B
:102CF000524143088B4201D34B00C01A5241411A42
:102D000000D20146524110467047FFE701B500204E
:102D100000F00CF802BDC0460029F7D003B5FFF75C
:102D200075FF0EBC4243891A1847C0467047C0461B
:102D30000E4B70B500251E1C0D4CE41AA410A542C4
:102D400004D0AB00F35898470135F8E7FFF7E0FBF4
:102D5000084B00251E1C084CE41AA410A54204D000
:102D6000AB00F35898470135F8E770BDAC0500207B
:102D7000AC050020AC050020AC050020002310B5F8
:102D8000934203D0CC5CC4540133F9E710BD00007A
:102D900000C0C101C30302C2C60607C705C5C404FB
:102DA000CC0C0DCD0FCFCE0E0ACACB0BC90908C86B
:102DB000D81819D91BDBDA1A1EDEDF1FDD1D1CDC5B
:102DC00014D4D515D71716D6D21213D311D1D010CB
:102DD000F03031F133F3F23236F6F737F53534F4BB
:102DE0003CFCFD3DFF3F3EFEFA3A3BFB39F9F8382B
:102DF00028E8E929EB2B2AEAEE2E2FEF2DEDEC2C1B
:102E0000E42425E527E7E62622E2E323E12120E08A
:102E1000A06061A163A3A26266A6A767A56564A47A
:102E20006CACAD6DAF6F6EAEAA6A6BAB69A9A868EA
:102E300078B8B979BB7B7ABABE7E7FBF7DBDBC7CDA
:102E4000B47475B577B7B67672B2B373B17170B04A
:102E5000509091519353529296565797559594543A
:102E60009C5C5D9D5F9F9E5E5A9A9B5B99595898AA
:102E7000884849894B8B8A4A4E8E8F4F8D4D4C8C9A
:102E8000448485458747468682424383418180400A
:102E900000C1814001C0804101C0804100C181402A
:102EA00001C0804100C1814000C1814001C080411A
:102EB00001C0804100C1814000C1814001C080410A
:102EC00000C1814001C0804101C0804100C18140FA
:102ED00001C0804100C1814000C1814001C08041EA
:102EE00000C1814001C0804101C0804100C18140DA
:102EF00000C1814001C0804101C0804100C18140CA
:102F000001C0804100C1814000C1814001C08041B9
:102F100001C0804100C1814000C1814001C08041A9
:102F200000C1814001C0804101C0804100C1814099
:102F300000C1814001C0804101C0804100C1814089
:102F400001C0804100C1814000C1814001C0804179
:102F500000C1814001C0804101C0804100C1814069
:102F600001C0804100C1814000C1814001C0804159
:102F700001C0804100C1814000C1814001C0804149
:102F800000C1814001C0804101C0804100C1814039
:102F90004C1D0010941C0010AA1C00101E1D0010D7
:102FA000321D00101E2300101E2300103C230010B1
:102FB0003C2300103423001034230010342300106D
:102FC00034230010242300102C23001010000000D4
:102FD000000001008000000001000000300000003F
:102FE00000000100000100000000010000000000DE
:102FF000B02A0010BE2A0010E22A00101C2B00107C
:0C3000003C2B00106C2B0010962B0010D5
:10300C002C48874600000000000000000000000073
:10301C0000000000000000000000000000000000A4
:10302C002548874600000000000000002348874622
:10303C0023488746234887462348874623488746A4
:10304C002348874623488746234887462348874694
:10305C0000000000000000002148874621488746F8
:10306C00214887462148874621488746214887467C
:10307C0021488746214887460000000000000000D8
:10308C0000000000000000001D4887461D488746D0
:10309C001D4887461D4887460000000000000000C0
:1030AC000000000000000000000000000000000014
:1030BC0000000000991000109910001099100010D9
:1030CC00152500109910001099100010991000107F
:1030DC009910001099100010991000109910001000
:1030EC001D28001099100010991000109910001054
:1030FC0099100010991000109910001099100010E0
:10310C006112001099100010991000109910001005
:10311C00110000003119001004000000C918001043
:10312C0003000000B5170010100000005D17001020
:10313C00060000002D170010170000001D180010CD
:10314C00010000006915001005000000E5150010D5
:10315C000F0000004916001002000000B516001008
:10316C000000000000000000000000000000000053
:10317C000000000000000000000000000000000043
:10318C000000000000000000000000000000000033
:0C319C0002010000020000000A00000018
:0400000510001019BE
:00000001FF
